S01500004D43505F536C617665546573742E7372656335
S11300000C942A000C943C000C943C000C943C008E
S11300100C943C000C943C000C943C000C943C006C
S11300200C943C000C943C000C943C000C943C005C
S11300300C943C000C9460030C9409030C943C0055
S11300400C943C000C943C000C943C000C943C003C
S11300500C943C0011241FBECFE5D8E0DEBFCDBF19
S113006020E0A0E6B0E001C01D92A438B207E1F799
S11300700E9453010C94B6030C9400004130A1F586
S1130080813089F028F08230C9F0833011F108956D
S113009081E090E002C0880F991F6A95E2F79AB355
S11300A0892B8ABB089581E090E002C0880F991FD4
S11300B06A95E2F797B3892B87BB089581E090E0B6
S11300C002C0880F991F6A95E2F794B3892B84BB09
S11300D0089581E090E002C0880F991F6A95E2F7C5
S11300E091B3892B81BB0895411137C0813091F0C0
S11300F028F08230D9F0833029F1089581E090E02E
S113010002C0880F991F6A95E2F780959AB38923F4
S11301108ABB089581E090E002C0880F991F6A9518
S1130120E2F7809597B3892387BB089581E090E037
S113013002C0880F991F6A95E2F7809594B38923CA
S113014084BB089581E090E002C0880F991F6A95EE
S1130150E2F7809591B3892381BB08954130A1F5DD
S1130160813089F028F08230C9F0833011F108958C
S113017081E090E002C0880F991F6A95E2F79BB373
S1130180892B8BBB089581E090E002C0880F991FF2
S11301906A95E2F798B3892B88BB089581E090E0D3
S11301A002C0880F991F6A95E2F795B3892B85BB26
S11301B0089581E090E002C0880F991F6A95E2F7E4
S11301C092B3892B82BB0895411137C0813091F0DD
S11301D028F08230D9F0833029F1089581E090E04D
S11301E002C0880F991F6A95E2F780959BB3892313
S11301F08BBB089581E090E002C0880F991F6A9537
S1130200E2F7809598B3892388BB089581E090E054
S113021002C0880F991F6A95E2F7809595B38923E8
S113022085BB089581E090E002C0880F991F6A950C
S1130230E2F7809592B3892382BB0895813081F0DF
S113024028F08230B9F08330F9F027C089B390E008
S113025002C0959587956A95E2F7982F91701DC015
S113026086B390E002C0959587956A95E2F7982F3A
S1130270917013C083B390E002C0959587956A95F9
S1130280E2F7982F917009C080B390E002C0959571
S113029087956A95E2F7982F9170892F08958FB703
S11302A080688FBF08950E9493020E94D6020E9424
S11302B04F010E94480240E062E083E00E943E0059
S11302C062E083E00E941E018111FACF0E946E0257
S11302D0C0E00AC0EC2FF0E0E458FF4F8081809327
S11302E060000E94E402CF5FC830A0F38DE00E945A
S11302F0E4028AE00E94E402E3CFCF93DF93D82F95
S1130300C62F81E00E94C40282E00E94D1028D2F98
S11303100E94D1028C2F0E94D10280E00E94C4026C
S1130320DF91CF910895CF93DF93D62FC42F682FF9
S11303308AE20E947D016D2F89E20E947D016C2F6B
S113034088E20E947D01DF91CF91089581E00E94AF
S1130350C40280EC0E94D10280E00E94C40208958D
S11303601F93CF93DF93182FD62FC42F81E00E94C1
S1130370C40285E00E94D102812F0E94D1028D2FF8
S11303800E94D1028C2F0E94D10280E00E94C402FC
S1130390DF91CF911F910895482F4295440F407EDD
S11303A060EE8FE00E94B0010895482F440F440F7F
S11303B064E080E60E94B0010895CF92DF92EF924C
S11303C0FF92CF93DF93D82F6A017B01C22F81E084
S11303D00E94C40282E00E94D1028D2F0E94D102A9
S11303E0CC23D1F1D701C601689412F8B695A7952C
S11303F0979587951694D1F70E94D1022C2D2295BA
S1130400220F207ED701C601072E7BE1B695A79562
S1130410979587957A95D1F7702D822B88600E94E5
S1130420D102D701C601072E73E1B695A79597951A
S113043087957A95D1F7702D0E94D102D701C60114
S1130440072E7BE0B695A795979587957A95D1F772
S1130450702D0E94D10212C0D701C601689412F80F
S1130460B695A795979587951694D1F70E94D102D2
S11304708C2D8295880F807E0E94D10280E00E949C
S1130480C402DF91CF91FF90EF90DF90CF90089559
S11304900E94A0020E94A60164E88FE00E947D01F0
S11304A045E061EB80E80E94930121E040E050E0E8
S11304B0BA0180E20E94DD0121E040E050E0BA018F
S11304C084E20E94DD0181E00E94D50161E08BE2BB
S11304D00E947D0180E00E94CC0108950F931F9338
S11304E0CF9381E00E94C40283E00E94D10280E69F
S11304F00E94D102C0E00AC00C2F10E080E00E94EC
S1130500D102F801EA58FF4F8083CF5FCE30A0F3C9
S113051080E00E94C40260E08CE20E947D01CF91E1
S11305201F910F91089581E08ABB88EB87BB8FEF01
S113053084BB8AE281BB1BBA18BA15BA12BA0895F1
S113054041E065E081E00E943E0040E066E081E039
S11305500E943E0041E066E081E00E94AE0041E07E
S113056067E081E00E943E0041E064E081E00E9497
S11305703E0041E064E081E00E94AE008EB18E7FD7
S11305808EB980E58DB90895813029F440E064E0A6
S11305900E94AE00089541E064E081E00E94AE0054
S11305A008958FB9779BFECF8FB108958AB18B7F61
S11305B08AB986E880BD83E389B98AB188608AB93B
S11305C08AB180618AB908959091640091111DC027
S11305D091E09093640040E050E0BA0104C04F5FA2
S11305E05F4F6F4F7F4F5D9906C0403593EC5907BD
S11305F061057105A1F74035534C6105710539F06A
S11306008CB91092640080E0089583E0089581E03D
S113061008951F920F920FB60F9211242F933F93B8
S11306204F935F936F937F938F939F93AF93BF93F6
S1130630EF93FF938091620081110BC010926400CC
S11306408AB18F7D8AB9E0917400F09175000995A3
S113065026C0813021F580916700E0916A00F09115
S11306606B00E80FF11D80818CB9809167008F5F6A
S113067080936700E0916A00F0916B00E80FF11D30
S1130680808181110CC0109264008AB18F7D8AB977
S1130690E0917000F0917100099510926700FF914C
S11306A0EF91BF91AF919F918F917F916F915F91E6
S11306B04F913F912F910F900FBE0F901F9018955F
S11306C01F920F920FB60F9211242F933F934F93C3
S11306D05F936F937F938F939F93AF93BF93EF93A6
S11306E0FF9380916100811111C0E0916C00F09141
S11306F06D008CB18083109263008AB18F778AB9C0
S1130700E0917200F091730009951FC08130E9F403
S113071080916600E0916800F0916900E80FF11D96
S11307209CB190838F5F80936600909165008913DC
S11307300CC0109263008AB18F778AB9E0916E0081
S1130740F0916F00099510926600FF91EF91BF91AF
S1130750AF919F918F917F916F915F914F913F9155
S11307602F910F900FBE0F901F901895F894FFCF04
S9030000FC
