:100000000C942A000C9447000C9447000C94470071
:100010000C9447000C9447000C9447000C94470044
:100020000C9447000C9447000C9447000C94470034
:100030000C9447000C9423030C94CC020C944700BE
:100040000C9447000C9447000C9447000C94470014
:100050000C94470011241FBECFE5D8E0DEBFCDBF12
:1000600010E0A0E6B0E0E6EFF6E002C005900D92E9
:10007000A037B107D9F720E0A0E7B0E001C01D929A
:10008000A538B207E1F70E945A010C9479030C9449
:1000900000004130A1F5813089F028F08230C9F0AC
:1000A000833011F1089581E090E002C0880F991F1C
:1000B0006A95E2F79AB3892B8ABB089581E090E0B4
:1000C00002C0880F991F6A95E2F797B3892B87BB07
:1000D000089581E090E002C0880F991F6A95E2F7C9
:1000E00094B3892B84BB089581E090E002C0880F0F
:1000F000991F6A95E2F791B3892B81BB089541114D
:1001000037C0813091F028F08230D9F0833029F166
:10011000089581E090E002C0880F991F6A95E2F788
:1001200080959AB389238ABB089581E090E002C04C
:10013000880F991F6A95E2F7809597B3892387BB4B
:10014000089581E090E002C0880F991F6A95E2F758
:10015000809594B3892384BB089581E090E002C028
:10016000880F991F6A95E2F7809591B3892381BB27
:1001700008954130A1F5813089F028F08230C9F02E
:10018000833011F1089581E090E002C0880F991F3B
:100190006A95E2F79BB3892B8BBB089581E090E0D1
:1001A00002C0880F991F6A95E2F798B3892B88BB24
:1001B000089581E090E002C0880F991F6A95E2F7E8
:1001C00095B3892B85BB089581E090E002C0880F2C
:1001D000991F6A95E2F792B3892B82BB089541116A
:1001E00037C0813091F028F08230D9F0833029F186
:1001F000089581E090E002C0880F991F6A95E2F7A8
:1002000080959BB389238BBB089581E090E002C069
:10021000880F991F6A95E2F7809598B3892388BB68
:10022000089581E090E002C0880F991F6A95E2F777
:10023000809595B3892385BB089581E090E002C045
:10024000880F991F6A95E2F7809592B3892382BB44
:100250000895813081F028F08230B9F08330F9F0D0
:1002600027C089B390E002C0959587956A95E2F71B
:10027000982F91701DC086B390E002C09595879528
:100280006A95E2F7982F917013C083B390E002C093
:10029000959587956A95E2F7982F917009C080B37C
:1002A00090E002C0959587956A95E2F7982F917036
:1002B000892F0895CF93DF93CDB7DEB760970FB640
:1002C000F894DEBF0FBECDBF40E062E083E00E9445
:1002D00049000E94040288E0E0E6F0E0DE011196A9
:1002E00001900D928A95E1F788E0E8E6F0E0DE0102
:1002F000199601900D928A95E1F78DE60E94A7026A
:100300008DE00E94A7028AE00E94A70262E083E0DB
:100310000E94290181110BC008E09E012F5F3F4F11
:1003200041EE57E060E070E00E9415020BC008E06B
:100330009E01275F3F4F4AEA57E060E070E080E0AF
:100340000E9415022FEF89E698E1215080409040ED
:10035000E1F700C00000D1CFCF93DF93D82FC62F95
:1003600081E00E94950282E00E94A2028D2F0E94ED
:10037000A2028C2F0E94A20280E00E949502DF91CF
:10038000CF910895CF93DF93D62FC42F682F8AE2A1
:100390000E94AC016D2F89E20E94AC016C2F88E2B3
:1003A0000E94AC01DF91CF91089581E00E949502F7
:1003B00080EC0E94A20280E00E94950208951F93A3
:1003C000CF93DF93182FD62FC42F81E00E94950280
:1003D00085E00E94A202812F0E94A2028D2F0E941E
:1003E000A2028C2F0E94A20280E00E949502DF915F
:1003F000CF911F910895482F4295440F407E60EEA3
:100400008FE00E94DF0108950E9471020E94D501D1
:1004100064E88FE00E94AC0145E061EB80E80E9457
:10042000C20180E00E94FB0108958F929F92AF92DB
:10043000BF92EF92FF920F93CF934A015B01790134
:1004400081E00E94950282E00E94A20280E30E9465
:10045000A202802F82958695869583700E94A202C3
:10046000D501C401689412F8B695A795979587951C
:100470001694D1F70E94A202882D8295880F807E63
:100480000E94A20280E00E94A20280E00E94A202DA
:100490000F70802F0E94A202C0E007C0F701EC0F8E
:1004A000F11D80810E94A202CF5F8C2F90E0202F4F
:1004B00030E08217930794F380E00E94950281E078
:1004C0000E94950281E80E94A20280E00E949502AB
:1004D000CF910F91FF90EF90BF90AF909F908F9032
:1004E000089541E065E081E00E94490040E066E057
:1004F00081E00E94490041E066E081E00E94B9008D
:1005000041E067E081E00E94490041E064E081E071
:100510000E94490041E064E081E00E94B9008EB190
:100520008E7F8EB980E58DB90895813029F440E041
:1005300064E00E94B900089541E064E081E00E9417
:10054000B90008958FB9779BFECF8FB10895909130
:10055000730091111DC091E09093730040E050E052
:10056000BA0104C04F5F5F4F6F4F7F4F5D9906C068
:10057000403593EC590761057105A1F74035534C9F
:100580006105710539F08CB91092730080E008950F
:1005900083E0089581E008951F920F920FB60F92A5
:1005A00011242F933F934F935F936F937F938F9378
:1005B0009F93AF93BF93EF93FF938091710081114D
:1005C0000BC0109273008AB18F7D8AB9E0918300CD
:1005D000F0918400099526C0813021F58091760044
:1005E000E0917900F0917A00E80FF11D80818CB9DB
:1005F000809176008F5F80937600E0917900F09192
:100600007A00E80FF11D808181110CC010927300F7
:100610008AB18F7D8AB9E0917F00F09180000995C1
:1006200010927600FF91EF91BF91AF919F918F91C2
:100630007F916F915F914F913F912F910F900FBEDE
:100640000F901F9018951F920F920FB60F921124C2
:100650002F933F934F935F936F937F938F939F93CA
:10066000AF93BF93EF93FF9380917000811111C0FE
:10067000E0917B00F0917C008CB18083109272003D
:100680008AB18F778AB9E0918100F0918200099553
:100690001FC08130E9F480917500E0917700F091FE
:1006A0007800E80FF11D9CB190838F5F80937500F7
:1006B0009091740089130CC0109272008AB18F77E8
:1006C0008AB9E0917D00F0917E0009951092750045
:1006D000FF91EF91BF91AF919F918F917F916F911A
:1006E0005F914F913F912F910F900FBE0F901F90F0
:0606F0001895F894FFCFFD
:1006F6004D6F68616D6D656448616265623030306A
:00000001FF
